:020000040800F2
:1000000008040020450100088D030008BF02000815
:10001000890300088D0100080105000800000000A8
:10002000000000000000000000000000B103000814
:1000300091010008000000008F0300089D040008E3
:100040005F0100085F0100085F0100085F01000810
:100050005F0100085F0100085F0100085F01000800
:100060005F0100085F0100085F0100085F010008F0
:100070005F0100085F0100085F0100085F010008E0
:100080005F0100085F0100085F0100085F010008D0
:100090005F0100085F0100085F0100085F010008C0
:1000A0005F0100085F0100085F0100085F010008B0
:1000B0005F0100085F0100085F0100085F010008A0
:1000C0005F0100085F0100085F0100085F01000890
:1000D0005F0100085F0100085F0100085F01000880
:1000E0005F0100085F0100085F0100085F01000870
:1000F0005F0100085F0100085F0100085F01000860
:100100005F0100085F0100085F0100085F0100084F
:100110005F0100085F0100085F0100085F0100083F
:100120005F0100085F0100085F0100085F0100082F
:10013000DFF80CD000F018F8004800472D05000843
:10014000080400200648804706480047FEE7FEE70F
:10015000FEE7FEE7FEE7FEE7FEE7FEE7FEE7FEE777
:10016000A104000831010008064C074D06E0E068D4
:1001700040F0010394E8070098471034AC42F6D3EE
:10018000FFF7DAFFCC050008EC05000800BFFEE72A
:1001900070472DE9F041024600250026002000238B
:1001A0000024002791F803C00CF00F0591F803C05C
:1001B0000CF0100CBCF1000F03D091F802C04CEA17
:1001C000050591F800C0BCF1000F31D01468002083
:1001D0002BE04FF0010C0CFA00F3B1F800C00CEA70
:1001E00003069E4220D183004FF00F0C0CFA03F758
:1001F000BC4305FA03FC4CEA040491F803C0BCF1CB
:10020000280F06D14FF0010C0CFA00FCC2F814C004
:100210000AE091F803C0BCF1480F05D14FF0010C82
:100220000CFA00FCC2F810C0401C0828D1D314609E
:10023000B1F800C0BCF1FF0F34DD546800202EE09F
:1002400000F1080C4FF0010808FA0CF3B1F800C0F7
:100250000CEA03069E4221D183004FF00F0C0CFAEA
:1002600003F7BC4305FA03FC4CEA040491F803C00D
:10027000BCF1280F05D100F1080C08FA0CF8C2F8FF
:10028000148091F803C0BCF1480F07D100F1080CAD
:100290004FF0010808FA0CF8C2F81080401C08283A
:1002A000CED35460BDE8F0810246002093680B4035
:1002B0000BB1012000E0002070470161704700BFD2
:1002C000FEE7000008B50121142000F061F80420C9
:1002D0008DF803000120ADF8000069460648FFF7DD
:1002E00058FF04208DF80300C002ADF800006946F5
:1002F0000248FFF74EFF08BD000801400010014012
:1003000070B504460D4629462046FFF7CDFF01286B
:1003100008D100BF29462046FFF7C6FF0128F9D0C3
:10032000012070BD0020FCE708B50121082000F085
:100330002FF82020ADF8000010208DF803000320D6
:100340008DF8020069460F48FFF723FF0120ADF842
:10035000000069460B48FFF71CFF0220ADF80000C3
:1003600069460848FFF715FF20210648FFF7A5FF5B
:1003700001210448FFF7A1FF02210248FFF79DFF7A
:1003800008BD0000000C014000BFFEE77047704749
:1003900029B1064A92690243044B9A6104E0034A78
:1003A00092698243014B9A6170470000001002403D
:1003B000704710B500F002F810BD00000CB5002029
:1003C000019000903348006840F480303149086063
:1003D00000BF3048006800F4003000900198401CD5
:1003E0000190009818B90198B0F5A06FF1D1294893
:1003F000006800F4003010B10120009001E00020FE
:1004000000900098012843D12348006840F0100074
:10041000214908600846006820F00300086008468B
:10042000006840F0020008601A48406819494860B6
:100430000846406848600846406840F4806048606C
:100440000846406820F47C1048600846406840F444
:10045000E81048600846006840F08070086000BFFF
:100460000C48006800F000700028F9D00948406886
:1004700020F00300074948600846406840F0020049
:10048000486000BF0348406800F00C000828F9D11C
:100490000CBD000000100240002002407047000028
:1004A00010B51348006840F0010011490860084683
:1004B0004068104908400E494860084600680E49E7
:1004C00008400B4908600846006820F48020086056
:1004D0000846406820F4FE0048604FF41F00886022
:1004E000FFF767FF4FF000600449086010BD00008F
:1004F000001002400000FFF8FFFFF6FE08ED00E0EC
:1005000000BFFEE702E008C8121F08C1002AFAD1A6
:1005100070477047002001E001C1121F002AFBD183
:10052000704700E0401E0028FCDC7047FFF7FCFE2F
:1005300020202149086001200860FFF7C3FE39E050
:1005400001211E48FFF7B0FE1D4908604FF400511D
:100550001C48FFF7A9FE1C490860194800680128DB
:1005600003D140F6FF70FFF7DCFF17480068012851
:1005700003D140F6FF70FFF7D4FF01210F48FFF7CA
:10058000BFFE012807D10C480838006880F0200021
:100590000949083908604FF400510A48FFF7B0FED6
:1005A000012807D104480838006880F0010002499A
:1005B00008390860C4E70000140C0140000801403D
:1005C000000000200010014004000020EC0500089D
:1005D000000000200800000004050008F4050008E1
:1005E00008000020000400001405000800000000BE
:0405F0000000000007
:0400000508000131BD
:00000001FF
