:020000040800F2
:100000001804002045010008AD0300084303000860
:10001000A90300088D0100089D05000800000000EC
:10002000000000000000000000000000D1030008F4
:100030009101000800000000AF030008110500084E
:100040005F0100085F0100085F0100085F01000810
:100050005F0100085F010008D10100085F0100088E
:100060005F0100085F0100085F0100085F010008F0
:100070005F0100085F0100085F0100085F010008E0
:100080005F0100085F0100085F0100085F010008D0
:100090005F0100085F0100085F0100085F010008C0
:1000A0005F0100085F0100085F0100085F010008B0
:1000B0005F0100085F0100085F0100085F010008A0
:1000C0005F0100085F0100085F0100085F01000890
:1000D0005F0100085F0100085F0100085F01000880
:1000E0005F0100085F0100085F0100085F01000870
:1000F0005F0100085F0100085F0100085F01000860
:100100005F0100085F0100085F0100085F0100084F
:100110005F0100085F0100085F0100085F0100083F
:100120005F0100085F0100085F0100085F0100082F
:10013000DFF80CD000F018F800480047C1050008AF
:10014000180400200648804706480047FEE7FEE7FF
:10015000FEE7FEE7FEE7FEE7FEE7FEE7FEE7FEE777
:100160001905000831010008064C074D06E0E0685B
:1001700040F0010394E8070098471034AC42F6D3EE
:10018000FFF7DAFFF00500081006000800BFFEE7E1
:1001900070470000074908604FF0E021096941F00D
:1001A00001014FF0E022116100BF024909680029F6
:1001B000FBD17047140000200448006820B10348B8
:1001C0000068401E014908607047000014000020CC
:1001D00010B5012000F014F8012805D1044800688A
:1001E00080F0010002490860012000F003F810BD12
:1001F0000C0C0140014908607047000014040140E4
:10020000014600200022074B1B6803EA0102054B50
:1002100014331B680B4013B10AB1012000E0002029
:1002200070470000000401402DE9F041024600251E
:100230000026002000230024002791F803C00CF0C2
:100240000F0591F803C00CF0100CBCF1000F03D0A7
:1002500091F802C04CEA050591F800C0BCF1000F0E
:1002600031D0146800202BE04FF0010C0CFA00F3A1
:10027000B1F800C00CEA03069E4220D183004FF083
:100280000F0C0CFA03F7BC4305FA03FC4CEA040418
:1002900091F803C0BCF1280F06D14FF0010C0CFA05
:1002A00000FCC2F814C00AE091F803C0BCF1480F8A
:1002B00005D14FF0010C0CFA00FCC2F810C0401C34
:1002C0000828D1D31460B1F800C0BCF1FF0F34DDB1
:1002D000546800202EE000F1080C4FF0010808FAE5
:1002E0000CF3B1F800C00CEA03069E4221D1830052
:1002F0004FF00F0C0CFA03F7BC4305FA03FC4CEA71
:10030000040491F803C0BCF1280F05D100F1080CDA
:1003100008FA0CF8C2F8148091F803C0BCF1480F39
:1003200007D100F1080C4FF0010808FA0CF8C2F8E8
:100330001080401C0828CED35460BDE8F0810161D4
:10034000704700BFFEE7000008B50121082000F05B
:100350002FF82020ADF8000010208DF803000320B6
:100360008DF8020069460F48FFF75EFF0120ADF8E7
:10037000000069460B48FFF757FF0220ADF8000068
:1003800069460848FFF750FF20210648FFF7D7FFCE
:1003900001210448FFF7D3FF02210248FFF7CFFFF6
:1003A00008BD0000000C014000BFFEE77047704729
:1003B00029B1064A92690243044B9A6104E0034A58
:1003C00092698243014B9A6170470000001002401D
:1003D000704710B500F002F810BD00000CB5002009
:1003E000019000903348006840F480303149086043
:1003F00000BF3048006800F4003000900198401CB5
:100400000190009818B90198B0F5A06FF1D1294872
:10041000006800F4003010B10120009001E00020DD
:1004200000900098012843D12348006840F0100054
:10043000214908600846006820F00300086008466B
:10044000006840F0020008601A4840681949486096
:100450000846406848600846406840F4806048604C
:100460000846406820F47C1048600846406840F424
:10047000E81048600846006840F08070086000BFDF
:100480000C48006800F000700028F9D00948406866
:1004900020F00300074948600846406840F0020029
:1004A000486000BF0348406800F00C000828F9D1FC
:1004B0000CBD0000001002400020024030B5014693
:1004C000B1F1807F01D3012030BD21F07F40401E7B
:1004D0004FF0E022506150170F22002807DA13076F
:1004E0001D0E094B00F00F04241F1D5503E01307D8
:1004F0001C0E064B1C5400BF00204FF0E022906100
:10050000072010610020DFE718ED00E000E400E0C4
:1005100010B5FFF751FE10BD10B51348006840F04C
:1005200001001149086008464068104908400E491A
:100530004860084600680E4908400B4908600846B4
:10054000006820F4802008600846406820F4FE001F
:1005500048604FF41F008860FFF73BFF4FF00060DA
:100560000449086010BD0000001002400000FFF8C0
:10057000FFFFF6FE08ED00E010B500BF054800687B
:100580000549B0FBF1F42046FFF798FF0028F5D1AC
:1005900010BD00000000002040420F0000BFFEE739
:1005A00002E008C8121F08C1002AFAD1704770473C
:1005B000002001E001C1121F002AFBD1704700009A
:1005C000FFF7C2FE012008490860FFF7D5FF0AE0E7
:1005D0000648FFF7DFFD04480838006880F0010096
:1005E000014908390860F3E7140C014040420F004C
:1005F000100600080000002018000000A0050008F8
:10060000280600081800002000040000B0050008BB
:1006100000A24A04000000000000000001020304E0
:080620000607080900000000B4
:0400000508000131BD
:00000001FF
